{
  "contractName": "Collections",
  "abi": [
    {
      "inputs": [
        {
          "internalType": "string",
          "name": "name",
          "type": "string"
        },
        {
          "internalType": "string",
          "name": "symbol",
          "type": "string"
        },
        {
          "internalType": "contract IMerkle",
          "name": "merkle",
          "type": "address"
        }
      ],
      "stateMutability": "nonpayable",
      "type": "constructor"
    },
    {
      "anonymous": false,
      "inputs": [
        {
          "indexed": true,
          "internalType": "address",
          "name": "owner",
          "type": "address"
        },
        {
          "indexed": true,
          "internalType": "address",
          "name": "approved",
          "type": "address"
        },
        {
          "indexed": true,
          "internalType": "uint256",
          "name": "tokenId",
          "type": "uint256"
        }
      ],
      "name": "Approval",
      "type": "event"
    },
    {
      "anonymous": false,
      "inputs": [
        {
          "indexed": true,
          "internalType": "address",
          "name": "owner",
          "type": "address"
        },
        {
          "indexed": true,
          "internalType": "address",
          "name": "operator",
          "type": "address"
        },
        {
          "indexed": false,
          "internalType": "bool",
          "name": "approved",
          "type": "bool"
        }
      ],
      "name": "ApprovalForAll",
      "type": "event"
    },
    {
      "anonymous": false,
      "inputs": [
        {
          "indexed": true,
          "internalType": "uint256",
          "name": "tokenId",
          "type": "uint256"
        },
        {
          "indexed": true,
          "internalType": "contract IStamps",
          "name": "stampsContract",
          "type": "address"
        }
      ],
      "name": "CollectionCreated",
      "type": "event"
    },
    {
      "anonymous": false,
      "inputs": [
        {
          "indexed": true,
          "internalType": "address",
          "name": "from",
          "type": "address"
        },
        {
          "indexed": true,
          "internalType": "address",
          "name": "to",
          "type": "address"
        },
        {
          "indexed": true,
          "internalType": "uint256",
          "name": "tokenId",
          "type": "uint256"
        }
      ],
      "name": "Transfer",
      "type": "event"
    },
    {
      "inputs": [
        {
          "internalType": "address",
          "name": "to",
          "type": "address"
        },
        {
          "internalType": "uint256",
          "name": "tokenId",
          "type": "uint256"
        }
      ],
      "name": "approve",
      "outputs": [],
      "stateMutability": "nonpayable",
      "type": "function"
    },
    {
      "inputs": [
        {
          "internalType": "address",
          "name": "owner",
          "type": "address"
        }
      ],
      "name": "balanceOf",
      "outputs": [
        {
          "internalType": "uint256",
          "name": "",
          "type": "uint256"
        }
      ],
      "stateMutability": "view",
      "type": "function",
      "constant": true
    },
    {
      "inputs": [],
      "name": "baseURI",
      "outputs": [
        {
          "internalType": "string",
          "name": "",
          "type": "string"
        }
      ],
      "stateMutability": "view",
      "type": "function",
      "constant": true
    },
    {
      "inputs": [
        {
          "internalType": "uint256",
          "name": "tokenId",
          "type": "uint256"
        }
      ],
      "name": "getApproved",
      "outputs": [
        {
          "internalType": "address",
          "name": "",
          "type": "address"
        }
      ],
      "stateMutability": "view",
      "type": "function",
      "constant": true
    },
    {
      "inputs": [
        {
          "internalType": "address",
          "name": "owner",
          "type": "address"
        },
        {
          "internalType": "address",
          "name": "operator",
          "type": "address"
        }
      ],
      "name": "isApprovedForAll",
      "outputs": [
        {
          "internalType": "bool",
          "name": "",
          "type": "bool"
        }
      ],
      "stateMutability": "view",
      "type": "function",
      "constant": true
    },
    {
      "inputs": [],
      "name": "name",
      "outputs": [
        {
          "internalType": "string",
          "name": "",
          "type": "string"
        }
      ],
      "stateMutability": "view",
      "type": "function",
      "constant": true
    },
    {
      "inputs": [
        {
          "internalType": "uint256",
          "name": "tokenId",
          "type": "uint256"
        }
      ],
      "name": "ownerOf",
      "outputs": [
        {
          "internalType": "address",
          "name": "",
          "type": "address"
        }
      ],
      "stateMutability": "view",
      "type": "function",
      "constant": true
    },
    {
      "inputs": [
        {
          "internalType": "address",
          "name": "from",
          "type": "address"
        },
        {
          "internalType": "address",
          "name": "to",
          "type": "address"
        },
        {
          "internalType": "uint256",
          "name": "tokenId",
          "type": "uint256"
        }
      ],
      "name": "safeTransferFrom",
      "outputs": [],
      "stateMutability": "nonpayable",
      "type": "function"
    },
    {
      "inputs": [
        {
          "internalType": "address",
          "name": "from",
          "type": "address"
        },
        {
          "internalType": "address",
          "name": "to",
          "type": "address"
        },
        {
          "internalType": "uint256",
          "name": "tokenId",
          "type": "uint256"
        },
        {
          "internalType": "bytes",
          "name": "_data",
          "type": "bytes"
        }
      ],
      "name": "safeTransferFrom",
      "outputs": [],
      "stateMutability": "nonpayable",
      "type": "function"
    },
    {
      "inputs": [
        {
          "internalType": "address",
          "name": "operator",
          "type": "address"
        },
        {
          "internalType": "bool",
          "name": "approved",
          "type": "bool"
        }
      ],
      "name": "setApprovalForAll",
      "outputs": [],
      "stateMutability": "nonpayable",
      "type": "function"
    },
    {
      "inputs": [
        {
          "internalType": "bytes4",
          "name": "interfaceId",
          "type": "bytes4"
        }
      ],
      "name": "supportsInterface",
      "outputs": [
        {
          "internalType": "bool",
          "name": "",
          "type": "bool"
        }
      ],
      "stateMutability": "view",
      "type": "function",
      "constant": true
    },
    {
      "inputs": [],
      "name": "symbol",
      "outputs": [
        {
          "internalType": "string",
          "name": "",
          "type": "string"
        }
      ],
      "stateMutability": "view",
      "type": "function",
      "constant": true
    },
    {
      "inputs": [
        {
          "internalType": "uint256",
          "name": "index",
          "type": "uint256"
        }
      ],
      "name": "tokenByIndex",
      "outputs": [
        {
          "internalType": "uint256",
          "name": "",
          "type": "uint256"
        }
      ],
      "stateMutability": "view",
      "type": "function",
      "constant": true
    },
    {
      "inputs": [
        {
          "internalType": "address",
          "name": "owner",
          "type": "address"
        },
        {
          "internalType": "uint256",
          "name": "index",
          "type": "uint256"
        }
      ],
      "name": "tokenOfOwnerByIndex",
      "outputs": [
        {
          "internalType": "uint256",
          "name": "",
          "type": "uint256"
        }
      ],
      "stateMutability": "view",
      "type": "function",
      "constant": true
    },
    {
      "inputs": [
        {
          "internalType": "uint256",
          "name": "tokenId",
          "type": "uint256"
        }
      ],
      "name": "tokenURI",
      "outputs": [
        {
          "internalType": "string",
          "name": "",
          "type": "string"
        }
      ],
      "stateMutability": "view",
      "type": "function",
      "constant": true
    },
    {
      "inputs": [],
      "name": "totalSupply",
      "outputs": [
        {
          "internalType": "uint256",
          "name": "",
          "type": "uint256"
        }
      ],
      "stateMutability": "view",
      "type": "function",
      "constant": true
    },
    {
      "inputs": [
        {
          "internalType": "address",
          "name": "from",
          "type": "address"
        },
        {
          "internalType": "address",
          "name": "to",
          "type": "address"
        },
        {
          "internalType": "uint256",
          "name": "tokenId",
          "type": "uint256"
        }
      ],
      "name": "transferFrom",
      "outputs": [],
      "stateMutability": "nonpayable",
      "type": "function"
    },
    {
      "inputs": [
        {
          "internalType": "string",
          "name": "name",
          "type": "string"
        },
        {
          "internalType": "string",
          "name": "symbol",
          "type": "string"
        },
        {
          "internalType": "uint256",
          "name": "value",
          "type": "uint256"
        },
        {
          "internalType": "bytes32",
          "name": "root",
          "type": "bytes32"
        },
        {
          "internalType": "string",
          "name": "URI",
          "type": "string"
        }
      ],
      "name": "createCollection",
      "outputs": [],
      "stateMutability": "nonpayable",
      "type": "function"
    },
    {
      "inputs": [
        {
          "internalType": "uint256",
          "name": "collectionId",
          "type": "uint256"
        },
        {
          "internalType": "uint256",
          "name": "denomination",
          "type": "uint256"
        },
        {
          "internalType": "string",
          "name": "itemURI",
          "type": "string"
        },
        {
          "internalType": "bytes",
          "name": "proof",
          "type": "bytes"
        }
      ],
      "name": "detachItem",
      "outputs": [],
      "stateMutability": "nonpayable",
      "type": "function"
    },
    {
      "inputs": [
        {
          "internalType": "uint256",
          "name": "collectionId",
          "type": "uint256"
        },
        {
          "internalType": "uint256",
          "name": "itemId",
          "type": "uint256"
        }
      ],
      "name": "joinItem",
      "outputs": [],
      "stateMutability": "nonpayable",
      "type": "function"
    }
  ],
  "bytecode": "0x60806040526000600a553480156200001657600080fd5b506040516200637138038062006371833981810160405260608110156200003c57600080fd5b81019080805160405193929190846401000000008211156200005d57600080fd5b9083019060208201858111156200007357600080fd5b82516401000000008111828201881017156200008e57600080fd5b82525081516020918201929091019080838360005b83811015620000bd578181015183820152602001620000a3565b50505050905090810190601f168015620000eb5780820380516001836020036101000a031916815260200191505b50604052602001805160405193929190846401000000008211156200010f57600080fd5b9083019060208201858111156200012557600080fd5b82516401000000008111828201881017156200014057600080fd5b82525081516020918201929091019080838360005b838110156200016f57818101518382015260200162000155565b50505050905090810190601f1680156200019d5780820380516001836020036101000a031916815260200191505b5060405260200151915083905082620001bd6301ffc9a760e01b6200024a565b8151620001d2906006906020850190620002cf565b508051620001e8906007906020840190620002cf565b50620001fb6380ac58cd60e01b6200024a565b6200020d635b5e139f60e01b6200024a565b6200021f63780e9d6360e01b6200024a565b5050600b80546001600160a01b0319166001600160a01b0392909216919091179055506200037b9050565b6001600160e01b03198082161415620002aa576040805162461bcd60e51b815260206004820152601c60248201527f4552433136353a20696e76616c696420696e7465726661636520696400000000604482015290519081900360640190fd5b6001600160e01b0319166000908152602081905260409020805460ff19166001179055565b828054600181600116156101000203166002900490600052602060002090601f01602090048101928262000307576000855562000352565b82601f106200032257805160ff191683800117855562000352565b8280016001018555821562000352579182015b828111156200035257825182559160200191906001019062000335565b506200036092915062000364565b5090565b5b8082111562000360576000815560010162000365565b615fe6806200038b6000396000f3fe60806040523480156200001157600080fd5b5060043610620001485760003560e01c80636352211e11620000bd578063b58c27ef116200007b578063b58c27ef14620004b8578063b88d4fde14620004de578063c87b56dd14620005a8578063d4b8b79014620005c8578063e985e9c514620007585762000148565b80636352211e146200042a5780636c0360eb146200044a57806370a08231146200045457806395d89b41146200047d578063a22cb46514620004875762000148565b806323b872dd116200010b57806323b872dd14620002965780632f745c5914620002cf57806342842e0e14620002fe5780634dab745414620003375780634f6ccce7146200040a5762000148565b806301ffc9a7146200014d57806306fdde03146200018b578063081812fc146200020d578063095ea7b3146200024957806318160ddd146200027a575b600080fd5b62000177600480360360208110156200016557600080fd5b50356001600160e01b03191662000789565b604080519115158252519081900360200190f35b62000195620007ac565b6040805160208082528351818301528351919283929083019185019080838360005b83811015620001d1578181015183820152602001620001b7565b50505050905090810190601f168015620001ff5780820380516001836020036101000a031916815260200191505b509250505060405180910390f35b6200022d600480360360208110156200022557600080fd5b503562000846565b604080516001600160a01b039092168252519081900360200190f35b62000278600480360360408110156200026157600080fd5b506001600160a01b038135169060200135620008ac565b005b6200028462000996565b60408051918252519081900360200190f35b6200027860048036036060811015620002ae57600080fd5b506001600160a01b03813581169160208101359091169060400135620009a9565b6200028460048036036040811015620002e757600080fd5b506001600160a01b03813516906020013562000a08565b62000278600480360360608110156200031657600080fd5b506001600160a01b0381358116916020810135909116906040013562000a35565b62000278600480360360808110156200034f57600080fd5b813591602081013591810190606081016040820135600160201b8111156200037657600080fd5b8201836020820111156200038957600080fd5b803590602001918460018302840111600160201b83111715620003ab57600080fd5b919390929091602081019035600160201b811115620003c957600080fd5b820183602082011115620003dc57600080fd5b803590602001918460018302840111600160201b83111715620003fe57600080fd5b50909250905062000a52565b62000284600480360360208110156200042257600080fd5b503562000ccb565b6200022d600480360360208110156200044257600080fd5b503562000ce3565b6200019562000d0e565b62000284600480360360208110156200046c57600080fd5b50356001600160a01b031662000d72565b6200019562000dde565b62000278600480360360408110156200049f57600080fd5b506001600160a01b038135169060200135151562000e42565b6200027860048036036040811015620004d057600080fd5b508035906020013562000f4e565b6200027860048036036080811015620004f657600080fd5b6001600160a01b03823581169260208101359091169160408201359190810190608081016060820135600160201b8111156200053157600080fd5b8201836020820111156200054457600080fd5b803590602001918460018302840111600160201b831117156200056657600080fd5b91908080601f01602080910402602001604051908101604052809392919081815260200183838082843760009201919091525092955062001295945050505050565b6200019560048036036020811015620005c057600080fd5b5035620012fb565b62000278600480360360a0811015620005e057600080fd5b810190602081018135600160201b811115620005fb57600080fd5b8201836020820111156200060e57600080fd5b803590602001918460018302840111600160201b831117156200063057600080fd5b91908080601f0160208091040260200160405190810160405280939291908181526020018383808284376000920191909152509295949360208101935035915050600160201b8111156200068357600080fd5b8201836020820111156200069657600080fd5b803590602001918460018302840111600160201b83111715620006b857600080fd5b91908080601f0160208091040260200160405190810160405280939291908181526020018383808284376000920191909152509295843595602086013595919450925060608101915060400135600160201b8111156200071757600080fd5b8201836020820111156200072a57600080fd5b803590602001918460018302840111600160201b831117156200074c57600080fd5b50909250905062001594565b62000177600480360360408110156200077057600080fd5b506001600160a01b0381358116916020013516620017bb565b6001600160e01b0319811660009081526020819052604090205460ff165b919050565b60068054604080516020601f60026000196101006001881615020190951694909404938401819004810282018101909252828152606093909290918301828280156200083c5780601f1062000810576101008083540402835291602001916200083c565b820191906000526020600020905b8154815290600101906020018083116200081e57829003601f168201915b5050505050905090565b60006200085382620017e9565b620008905760405162461bcd60e51b815260040180806020018281038252602c81526020018062005eaf602c913960400191505060405180910390fd5b506000908152600460205260409020546001600160a01b031690565b6000620008b98262000ce3565b9050806001600160a01b0316836001600160a01b031614156200090e5760405162461bcd60e51b815260040180806020018281038252602181526020018062005f5f6021913960400191505060405180910390fd5b806001600160a01b031662000922620017f8565b6001600160a01b03161480620009485750620009488162000942620017f8565b620017bb565b620009855760405162461bcd60e51b815260040180806020018281038252603881526020018062005e026038913960400191505060405180910390fd5b620009918383620017fc565b505050565b6000620009a460026200186c565b905090565b620009be620009b7620017f8565b8262001879565b620009fb5760405162461bcd60e51b815260040180806020018281038252603181526020018062005f806031913960400191505060405180910390fd5b6200099183838362001929565b6001600160a01b038216600090815260016020526040812062000a2c908362001a85565b90505b92915050565b620009918383836040518060200160405280600081525062001295565b6000858585604051602001808481526020018383808284378083019250505093505050506040516020818303038152906040528051906020012090506000600d6000898152602001908152602001600020905062000ab1338962001879565b62000add576040805162461bcd60e51b8152602060048201526000602482015290519081900360440190fd5b600b5481546040516323e46e9360e21b81526004810185815260248201839052606060448301908152606483018890526001600160a01b0390941693638f91ba4c93879390928a928a92608401848480828437600081840152601f19601f8201169050808301925050509550505050505060206040518083038186803b15801562000b6757600080fd5b505afa15801562000b7c573d6000803e3d6000fd5b505050506040513d602081101562000b9357600080fd5b505162000bc1576040805162461bcd60e51b8152602060048201526000602482015290519081900360440190fd5b6002810154600160a01b900460ff161562000bed57600181015462000be7908862001a93565b60018201555b6000888152600c6020908152604080832085845290915290819020805460ff1916600117905560028201548151630ee12ff960e31b8152600481018a815260248201938452604482018990526001600160a01b03909216926377097fc8928b928b928b9291606401848480828437600081840152601f19601f820116905080830192505050945050505050602060405180830381600087803b15801562000c9357600080fd5b505af115801562000ca8573d6000803e3d6000fd5b505050506040513d602081101562000cbf57600080fd5b50505050505050505050565b60008062000cdb60028462001af1565b509392505050565b600062000a2f8260405180606001604052806029815260200162005e64602991396002919062001b0f565b60098054604080516020601f60026000196101006001881615020190951694909404938401819004810282018101909252828152606093909290918301828280156200083c5780601f1062000810576101008083540402835291602001916200083c565b60006001600160a01b03821662000dbb5760405162461bcd60e51b815260040180806020018281038252602a81526020018062005e3a602a913960400191505060405180910390fd5b6001600160a01b038216600090815260016020526040902062000a2f906200186c565b60078054604080516020601f60026000196101006001881615020190951694909404938401819004810282018101909252828152606093909290918301828280156200083c5780601f1062000810576101008083540402835291602001916200083c565b62000e4c620017f8565b6001600160a01b0316826001600160a01b0316141562000eb3576040805162461bcd60e51b815260206004820152601960248201527f4552433732313a20617070726f766520746f2063616c6c657200000000000000604482015290519081900360640190fd5b806005600062000ec2620017f8565b6001600160a01b03908116825260208083019390935260409182016000908120918716808252919093529120805460ff19169215159290921790915562000f08620017f8565b6001600160a01b03167f17307eab39ab6107e8899845ad3d59bd9653f200f220920489ca2b5937696c318360405180821515815260200191505060405180910390a35050565b6000828152600d602090815260408083206002810154825163effd602160e01b81526004810187905292519194936001600160a01b039091169263effd6021926024808301939282900301818787803b15801562000fab57600080fd5b505af115801562000fc0573d6000803e3d6000fd5b505050506040513d602081101562000fd757600080fd5b505160028301546040805163c87b56dd60e01b81526004810187905290519293506000926001600160a01b039092169163c87b56dd916024808201928692909190829003018186803b1580156200102d57600080fd5b505afa15801562001042573d6000803e3d6000fd5b505050506040513d6000823e601f3d908101601f1916820160405260208110156200106c57600080fd5b8101908080516040519392919084600160201b8211156200108c57600080fd5b908301906020820185811115620010a257600080fd5b8251600160201b811182820188101715620010bc57600080fd5b82525081516020918201929091019080838360005b83811015620010eb578181015183820152602001620010d1565b50505050905090810190601f168015620011195780820380516001836020036101000a031916815260200191505b506040525050509050600082826040516020018083815260200182805190602001908083835b60208310620011605780518252601f1990920191602091820191016200113f565b51815160209384036101000a60001901801990921691161790526040805192909401828103601f19018352845281519181019190912060008d8152600c8352848120828252909252929020549195505060ff169250620011e4915050576040805162461bcd60e51b8152602060048201526000602482015290519081900360440190fd5b6002840154600160a01b900460ff16151560011415620012155760018401546200120f908462001b28565b60018501555b6000868152600c60209081526040808320848452909152808220805460ff1916905560028601548151630852cd8d60e31b81526004810189905291516001600160a01b03909116926342966c68926024808201939182900301818387803b1580156200128057600080fd5b505af115801562000cbf573d6000803e3d6000fd5b620012aa620012a3620017f8565b8362001879565b620012e75760405162461bcd60e51b815260040180806020018281038252603181526020018062005f806031913960400191505060405180910390fd5b620012f58484848462001b83565b50505050565b60606200130882620017e9565b620013455760405162461bcd60e51b815260040180806020018281038252602f81526020018062005f30602f913960400191505060405180910390fd5b60008281526008602090815260408083208054825160026001831615610100026000190190921691909104601f810185900485028201850190935282815292909190830182828015620013dc5780601f10620013b057610100808354040283529160200191620013dc565b820191906000526020600020905b815481529060010190602001808311620013be57829003601f168201915b505050505090506000620013ef62000d0e565b90508051600014156200140557509050620007a7565b815115620014cc5780826040516020018083805190602001908083835b60208310620014435780518252601f19909201916020918201910162001422565b51815160209384036101000a600019018019909216911617905285519190930192850191508083835b602083106200148d5780518252601f1990920191602091820191016200146c565b6001836020036101000a0380198251168184511680821785525050505050509050019250505060405160208183030381529060405292505050620007a7565b80620014d88562001bdb565b6040516020018083805190602001908083835b602083106200150c5780518252601f199092019160209182019101620014eb565b51815160209384036101000a600019018019909216911617905285519190930192850191508083835b60208310620015565780518252601f19909201916020918201910162001535565b6001836020036101000a0380198251168184511680821785525050505050509050019250505060405160208183030381529060405292505050919050565b620015a233600a5462001cbf565b620015e6600a5483838080601f01602080910402602001604051908101604052809392919081815260200183838082843760009201919091525062001df792505050565b600086868660001415604051620015fd906200253d565b8115156040820152606080825284519082015283518190602080830191608084019188019080838360005b838110156200164257818101518382015260200162001628565b50505050905090810190601f168015620016705780820380516001836020036101000a031916815260200191505b50838103825285518152855160209182019187019080838360005b83811015620016a55781810151838201526020016200168b565b50505050905090810190601f168015620016d35780820380516001836020036101000a031916815260200191505b5095505050505050604051809103906000f080158015620016f8573d6000803e3d6000fd5b506040805160808101825286815260208082018981526001600160a01b038086168486018181528c151560608701908152600a80546000908152600d909752888720975188559451600188015590516002909601805491511515600160a01b0260ff60a01b19979094166001600160a01b031990921691909117959095169190911790935554925193945090927f18c1b1c8856053698af995ce4384c0f661562c52a65d6dd29b910849d5e1bfca9190a35050600a805460010190555050505050565b6001600160a01b03918216600090815260056020908152604080832093909416825291909152205460ff1690565b600062000a2f60028362001e60565b3390565b600081815260046020526040902080546001600160a01b0319166001600160a01b0384169081179091558190620018338262000ce3565b6001600160a01b03167f8c5be1e5ebec7d5bd14f71427d1e84f3dd0314c0f7b2291e5b200ac8c7c3b92560405160405180910390a45050565b600062000a2f8262001e6e565b60006200188682620017e9565b620018c35760405162461bcd60e51b815260040180806020018281038252602c81526020018062005dd6602c913960400191505060405180910390fd5b6000620018d08362000ce3565b9050806001600160a01b0316846001600160a01b031614806200190e5750836001600160a01b0316620019038462000846565b6001600160a01b0316145b80620019215750620019218185620017bb565b949350505050565b826001600160a01b03166200193e8262000ce3565b6001600160a01b031614620019855760405162461bcd60e51b815260040180806020018281038252602981526020018062005f076029913960400191505060405180910390fd5b6001600160a01b038216620019cc5760405162461bcd60e51b815260040180806020018281038252602481526020018062005db26024913960400191505060405180910390fd5b620019d983838362000991565b620019e6600082620017fc565b6001600160a01b038316600090815260016020526040902062001a0a908262001e72565b506001600160a01b038216600090815260016020526040902062001a2f908262001e80565b5062001a3e6002828462001e8e565b5080826001600160a01b0316846001600160a01b03167fddf252ad1be2c89b69c2b068fc378daa952ba7f163c4a11628f55a4df523b3ef60405160405180910390a4505050565b600062000a2c838362001ea6565b60008282111562001aeb576040805162461bcd60e51b815260206004820152601e60248201527f536166654d6174683a207375627472616374696f6e206f766572666c6f770000604482015290519081900360640190fd5b50900390565b600080808062001b02868662001f0d565b9097909650945050505050565b600062001b1e84848462001f8b565b90505b9392505050565b60008282018381101562000a2c576040805162461bcd60e51b815260206004820152601b60248201527f536166654d6174683a206164646974696f6e206f766572666c6f770000000000604482015290519081900360640190fd5b62001b9084848462001929565b62001b9e848484846200205a565b620012f55760405162461bcd60e51b815260040180806020018281038252603281526020018062005d806032913960400191505060405180910390fd5b60608162001c0257506040805180820190915260018152600360fc1b6020820152620007a7565b8160005b811562001c1c57600101600a8204915062001c06565b60008167ffffffffffffffff8111801562001c3657600080fd5b506040519080825280601f01601f19166020018201604052801562001c62576020820181803683370190505b50859350905060001982015b831562001cb657600a840660300160f81b8282806001900393508151811062001c9357fe5b60200101906001600160f81b031916908160001a905350600a8404935062001c6e565b50949350505050565b6001600160a01b03821662001d1b576040805162461bcd60e51b815260206004820181905260248201527f4552433732313a206d696e7420746f20746865207a65726f2061646472657373604482015290519081900360640190fd5b62001d2681620017e9565b1562001d79576040805162461bcd60e51b815260206004820152601c60248201527f4552433732313a20746f6b656e20616c7265616479206d696e74656400000000604482015290519081900360640190fd5b62001d876000838362000991565b6001600160a01b038216600090815260016020526040902062001dab908262001e80565b5062001dba6002828462001e8e565b5060405181906001600160a01b038416906000907fddf252ad1be2c89b69c2b068fc378daa952ba7f163c4a11628f55a4df523b3ef908290a45050565b62001e0282620017e9565b62001e3f5760405162461bcd60e51b815260040180806020018281038252602c81526020018062005edb602c913960400191505060405180910390fd5b6000828152600860209081526040909120825162000991928401906200254b565b600062000a2c8383620021cf565b5490565b600062000a2c8383620021e7565b600062000a2c8383620022b3565b600062001b1e84846001600160a01b03851662002302565b8154600090821062001eea5760405162461bcd60e51b815260040180806020018281038252602281526020018062005d5e6022913960400191505060405180910390fd5b82600001828154811062001efa57fe5b9060005260206000200154905092915050565b81546000908190831062001f535760405162461bcd60e51b815260040180806020018281038252602281526020018062005e8d6022913960400191505060405180910390fd5b600084600001848154811062001f6557fe5b906000526020600020906002020190508060000154816001015492509250509250929050565b600082815260018401602052604081205482816200202a5760405162461bcd60e51b81526004018080602001828103825283818151815260200191508051906020019080838360005b8381101562001fee57818101518382015260200162001fd4565b50505050905090810190601f1680156200201c5780820380516001836020036101000a031916815260200191505b509250505060405180910390fd5b508460000160018203815481106200203e57fe5b9060005260206000209060020201600101549150509392505050565b600062002070846001600160a01b03166200239d565b6200207e5750600162001921565b600062002194630a85bd0160e11b62002096620017f8565b88878760405160240180856001600160a01b03168152602001846001600160a01b0316815260200183815260200180602001828103825283818151815260200191508051906020019080838360005b83811015620020ff578181015183820152602001620020e5565b50505050905090810190601f1680156200212d5780820380516001836020036101000a031916815260200191505b5095505050505050604051602081830303815290604052906001600160e01b0319166020820180516001600160e01b03838183161783525050505060405180606001604052806032815260200162005d80603291396001600160a01b0388169190620023a3565b90506000818060200190516020811015620021ae57600080fd5b50516001600160e01b031916630a85bd0160e11b1492505050949350505050565b60009081526001919091016020526040902054151590565b60008181526001830160205260408120548015620022a857835460001980830191908101906000908790839081106200221c57fe5b90600052602060002001549050808760000184815481106200223a57fe5b6000918252602080832090910192909255828152600189810190925260409020908401905586548790806200226b57fe5b6001900381819060005260206000200160009055905586600101600087815260200190815260200160002060009055600194505050505062000a2f565b600091505062000a2f565b6000620022c18383620021cf565b620022f95750815460018181018455600084815260208082209093018490558454848252828601909352604090209190915562000a2f565b50600062000a2f565b6000828152600184016020526040812054806200236957505060408051808201825283815260208082018481528654600181810189556000898152848120955160029093029095019182559151908201558654868452818801909252929091205562001b21565b828560000160018303815481106200237d57fe5b906000526020600020906002020160010181905550600091505062001b21565b3b151590565b606062001b1e848460008585620023ba856200239d565b6200240c576040805162461bcd60e51b815260206004820152601d60248201527f416464726573733a2063616c6c20746f206e6f6e2d636f6e7472616374000000604482015290519081900360640190fd5b600080866001600160a01b031685876040518082805190602001908083835b602083106200244c5780518252601f1990920191602091820191016200242b565b6001836020036101000a03801982511681845116808217855250505050505090500191505060006040518083038185875af1925050503d8060008114620024b0576040519150601f19603f3d011682016040523d82523d6000602084013e620024b5565b606091505b5091509150620024c7828286620024d2565b979650505050505050565b60608315620024e357508162001b21565b825115620024f45782518084602001fd5b60405162461bcd60e51b815260206004820181815284516024840152845185939192839260440191908501908083836000831562001fee57818101518382015260200162001fd4565b61376680620025f883390190565b828054600181600116156101000203166002900490600052602060002090601f016020900481019282620025835760008555620025ce565b82601f106200259e57805160ff1916838001178555620025ce565b82800160010185558215620025ce579182015b82811115620025ce578251825591602001919060010190620025b1565b50620025dc929150620025e0565b5090565b5b80821115620025dc5760008155600101620025e156fe60806040526000600c553480156200001657600080fd5b506040516200376638038062003766833981810160405260608110156200003c57600080fd5b81019080805160405193929190846401000000008211156200005d57600080fd5b9083019060208201858111156200007357600080fd5b82516401000000008111828201881017156200008e57600080fd5b82525081516020918201929091019080838360005b83811015620000bd578181015183820152602001620000a3565b50505050905090810190601f168015620000eb5780820380516001836020036101000a031916815260200191505b50604052602001805160405193929190846401000000008211156200010f57600080fd5b9083019060208201858111156200012557600080fd5b82516401000000008111828201881017156200014057600080fd5b82525081516020918201929091019080838360005b838110156200016f57818101518382015260200162000155565b50505050905090810190601f1680156200019d5780820380516001836020036101000a031916815260200191505b5060405260200151915083905082620001bd6301ffc9a760e01b62000376565b8151620001d2906006906020850190620003fb565b508051620001e8906007906020840190620003fb565b50620001fb6380ac58cd60e01b62000376565b6200020d635b5e139f60e01b62000376565b6200021f63780e9d6360e01b62000376565b5050600a80546001600160a01b0319163317905580156200036d5782826040516200024a9062000490565b604080825283519082015282518190602080830191606084019187019080838360005b83811015620002875781810151838201526020016200026d565b50505050905090810190601f168015620002b55780820380516001836020036101000a031916815260200191505b50838103825284518152845160209182019186019080838360005b83811015620002ea578181015183820152602001620002d0565b50505050905090810190601f168015620003185780820380516001836020036101000a031916815260200191505b50945050505050604051809103906000f0801580156200033c573d6000803e3d6000fd5b50600b805460ff60a01b196001600160a01b03939093166001600160a01b03199091161791909116600160a01b1790555b505050620004b5565b6001600160e01b03198082161415620003d6576040805162461bcd60e51b815260206004820152601c60248201527f4552433136353a20696e76616c696420696e7465726661636520696400000000604482015290519081900360640190fd5b6001600160e01b0319166000908152602081905260409020805460ff19166001179055565b828054600181600116156101000203166002900490600052602060002090601f0160209004810192826200043357600085556200047e565b82601f106200044e57805160ff19168380011785556200047e565b828001600101855582156200047e579182015b828111156200047e57825182559160200191906001019062000461565b506200048c9291506200049e565b5090565b6112a380620024c383390190565b5b808211156200048c57600081556001016200049f565b611ffe80620004c56000396000f3fe608060405234801561001057600080fd5b50600436106101365760003560e01c80634f6ccce7116100b857806395d89b411161007c57806395d89b4114610410578063a22cb46514610418578063b88d4fde14610446578063c87b56dd1461050c578063e985e9c514610529578063effd60211461055757610136565b80634f6ccce7146103315780636352211e1461034e5780636c0360eb1461036b57806370a082311461037357806377097fc81461039957610136565b806318160ddd116100ff57806318160ddd1461026257806323b872dd1461027c5780632f745c59146102b257806342842e0e146102de57806342966c681461031457610136565b80628fd4031461013b57806301ffc9a71461015757806306fdde031461017e578063081812fc146101fb578063095ea7b314610234575b600080fd5b610143610574565b604080519115158252519081900360200190f35b6101436004803603602081101561016d57600080fd5b50356001600160e01b031916610584565b6101866105a7565b6040805160208082528351818301528351919283929083019185019080838360005b838110156101c05781810151838201526020016101a8565b50505050905090810190601f1680156101ed5780820380516001836020036101000a031916815260200191505b509250505060405180910390f35b6102186004803603602081101561021157600080fd5b503561063d565b604080516001600160a01b039092168252519081900360200190f35b6102606004803603604081101561024a57600080fd5b506001600160a01b03813516906020013561069f565b005b61026a61077a565b60408051918252519081900360200190f35b6102606004803603606081101561029257600080fd5b506001600160a01b0381358116916020810135909116906040013561078b565b61026a600480360360408110156102c857600080fd5b506001600160a01b0381351690602001356107e2565b610260600480360360608110156102f457600080fd5b506001600160a01b0381358116916020810135909116906040013561080d565b6102606004803603602081101561032a57600080fd5b5035610828565b61026a6004803603602081101561034757600080fd5b503561084b565b6102186004803603602081101561036457600080fd5b5035610861565b610186610889565b61026a6004803603602081101561038957600080fd5b50356001600160a01b03166108ea565b61026a600480360360408110156103af57600080fd5b813591908101906040810160208201356401000000008111156103d157600080fd5b8201836020820111156103e357600080fd5b8035906020019184600183028401116401000000008311171561040557600080fd5b509092509050610952565b610186610a52565b6102606004803603604081101561042e57600080fd5b506001600160a01b0381351690602001351515610ab3565b6102606004803603608081101561045c57600080fd5b6001600160a01b0382358116926020810135909116916040820135919081019060808101606082013564010000000081111561049757600080fd5b8201836020820111156104a957600080fd5b803590602001918460018302840111640100000000831117156104cb57600080fd5b91908080601f016020809104026020016040519081016040528093929190818152602001838380828437600092019190915250929550610bb8945050505050565b6101866004803603602081101561052257600080fd5b5035610c16565b6101436004803603604081101561053f57600080fd5b506001600160a01b0381358116916020013516610e97565b61026a6004803603602081101561056d57600080fd5b5035610ec5565b600b54600160a01b900460ff1681565b6001600160e01b0319811660009081526020819052604090205460ff165b919050565b60068054604080516020601f60026000196101006001881615020190951694909404938401819004810282018101909252828152606093909290918301828280156106335780601f1061060857610100808354040283529160200191610633565b820191906000526020600020905b81548152906001019060200180831161061657829003601f168201915b5050505050905090565b600061064882610ed7565b6106835760405162461bcd60e51b815260040180806020018281038252602c815260200180611ec7602c913960400191505060405180910390fd5b506000908152600460205260409020546001600160a01b031690565b60006106aa82610861565b9050806001600160a01b0316836001600160a01b031614156106fd5760405162461bcd60e51b8152600401808060200182810382526021815260200180611f776021913960400191505060405180910390fd5b806001600160a01b031661070f610ee4565b6001600160a01b0316148061073057506107308161072b610ee4565b610e97565b61076b5760405162461bcd60e51b8152600401808060200182810382526038815260200180611e1a6038913960400191505060405180910390fd5b6107758383610ee8565b505050565b60006107866002610f56565b905090565b61079c610796610ee4565b82610f61565b6107d75760405162461bcd60e51b8152600401808060200182810382526031815260200180611f986031913960400191505060405180910390fd5b610775838383611005565b6001600160a01b03821660009081526001602052604081206108049083611151565b90505b92915050565b61077583838360405180602001604052806000815250610bb8565b600a546001600160a01b0316331461083f57600080fd5b6108488161115d565b50565b60008061085960028461122a565b509392505050565b600061080782604051806060016040528060298152602001611e7c6029913960029190611246565b60098054604080516020601f60026000196101006001881615020190951694909404938401819004810282018101909252828152606093909290918301828280156106335780601f1061060857610100808354040283529160200191610633565b60006001600160a01b0382166109315760405162461bcd60e51b815260040180806020018281038252602a815260200180611e52602a913960400191505060405180910390fd5b6001600160a01b038216600090815260016020526040902061080790610f56565b600a546000906001600160a01b0316331461096c57600080fd5b61097833600c54611253565b6109ba600c5484848080601f01602080910402602001604051908101604052809392919081815260200183838082843760009201919091525061138192505050565b600b54600160a01b900460ff16156109e557600c546000908152600d60205260409020849055610a12565b8315610a12576040805162461bcd60e51b8152602060048201526000602482015290519081900360440190fd5b600c546040517f04b323e613b7e8e806af2e81a35fa93374d0db7294f8d5b3f4224aa16e55dd6390600090a250600c8054600101908190555b9392505050565b60078054604080516020601f60026000196101006001881615020190951694909404938401819004810282018101909252828152606093909290918301828280156106335780601f1061060857610100808354040283529160200191610633565b610abb610ee4565b6001600160a01b0316826001600160a01b03161415610b21576040805162461bcd60e51b815260206004820152601960248201527f4552433732313a20617070726f766520746f2063616c6c657200000000000000604482015290519081900360640190fd5b8060056000610b2e610ee4565b6001600160a01b03908116825260208083019390935260409182016000908120918716808252919093529120805460ff191692151592909217909155610b72610ee4565b6001600160a01b03167f17307eab39ab6107e8899845ad3d59bd9653f200f220920489ca2b5937696c318360405180821515815260200191505060405180910390a35050565b610bc9610bc3610ee4565b83610f61565b610c045760405162461bcd60e51b8152600401808060200182810382526031815260200180611f986031913960400191505060405180910390fd5b610c10848484846113e4565b50505050565b6060610c2182610ed7565b610c5c5760405162461bcd60e51b815260040180806020018281038252602f815260200180611f48602f913960400191505060405180910390fd5b60008281526008602090815260408083208054825160026001831615610100026000190190921691909104601f810185900485028201850190935282815292909190830182828015610cef5780601f10610cc457610100808354040283529160200191610cef565b820191906000526020600020905b815481529060010190602001808311610cd257829003601f168201915b505050505090506000610d00610889565b9050805160001415610d14575090506105a2565b815115610dd55780826040516020018083805190602001908083835b60208310610d4f5780518252601f199092019160209182019101610d30565b51815160209384036101000a600019018019909216911617905285519190930192850191508083835b60208310610d975780518252601f199092019160209182019101610d78565b6001836020036101000a03801982511681845116808217855250505050505090500192505050604051602081830303815290604052925050506105a2565b80610ddf85611436565b6040516020018083805190602001908083835b60208310610e115780518252601f199092019160209182019101610df2565b51815160209384036101000a600019018019909216911617905285519190930192850191508083835b60208310610e595780518252601f199092019160209182019101610e3a565b6001836020036101000a0380198251168184511680821785525050505050509050019250505060405160208183030381529060405292505050919050565b6001600160a01b03918216600090815260056020908152604080832093909416825291909152205460ff1690565b6000908152600d602052604090205490565b6000610807600283611511565b3390565b600081815260046020526040902080546001600160a01b0319166001600160a01b0384169081179091558190610f1d82610861565b6001600160a01b03167f8c5be1e5ebec7d5bd14f71427d1e84f3dd0314c0f7b2291e5b200ac8c7c3b92560405160405180910390a45050565b60006108078261151d565b6000610f6c82610ed7565b610fa75760405162461bcd60e51b815260040180806020018281038252602c815260200180611dee602c913960400191505060405180910390fd5b6000610fb283610861565b9050806001600160a01b0316846001600160a01b03161480610fed5750836001600160a01b0316610fe28461063d565b6001600160a01b0316145b80610ffd5750610ffd8185610e97565b949350505050565b826001600160a01b031661101882610861565b6001600160a01b03161461105d5760405162461bcd60e51b8152600401808060200182810382526029815260200180611f1f6029913960400191505060405180910390fd5b6001600160a01b0382166110a25760405162461bcd60e51b8152600401808060200182810382526024815260200180611dca6024913960400191505060405180910390fd5b6110ad838383610775565b6110b8600082610ee8565b6001600160a01b03831660009081526001602052604090206110da9082611521565b506001600160a01b03821660009081526001602052604090206110fd908261152d565b5061110a60028284611539565b5080826001600160a01b0316846001600160a01b03167fddf252ad1be2c89b69c2b068fc378daa952ba7f163c4a11628f55a4df523b3ef60405160405180910390a4505050565b6000610804838361154f565b600061116882610861565b905061117681600084610775565b611181600083610ee8565b60008281526008602052604090205460026000196101006001841615020190911604156111bf5760008281526008602052604081206111bf91611c90565b6001600160a01b03811660009081526001602052604090206111e19083611521565b506111ed6002836115b3565b5060405182906000906001600160a01b038416907fddf252ad1be2c89b69c2b068fc378daa952ba7f163c4a11628f55a4df523b3ef908390a45050565b600080808061123986866115bf565b9097909650945050505050565b6000610ffd84848461163a565b6001600160a01b0382166112ae576040805162461bcd60e51b815260206004820181905260248201527f4552433732313a206d696e7420746f20746865207a65726f2061646472657373604482015290519081900360640190fd5b6112b781610ed7565b15611309576040805162461bcd60e51b815260206004820152601c60248201527f4552433732313a20746f6b656e20616c7265616479206d696e74656400000000604482015290519081900360640190fd5b61131560008383610775565b6001600160a01b0382166000908152600160205260409020611337908261152d565b5061134460028284611539565b5060405181906001600160a01b038416906000907fddf252ad1be2c89b69c2b068fc378daa952ba7f163c4a11628f55a4df523b3ef908290a45050565b61138a82610ed7565b6113c55760405162461bcd60e51b815260040180806020018281038252602c815260200180611ef3602c913960400191505060405180910390fd5b6000828152600860209081526040909120825161077592840190611cd4565b6113ef848484611005565b6113fb84848484611704565b610c105760405162461bcd60e51b8152600401808060200182810382526032815260200180611d986032913960400191505060405180910390fd5b60608161145b57506040805180820190915260018152600360fc1b60208201526105a2565b8160005b811561147357600101600a8204915061145f565b60008167ffffffffffffffff8111801561148c57600080fd5b506040519080825280601f01601f1916602001820160405280156114b7576020820181803683370190505b50859350905060001982015b831561150857600a840660300160f81b828280600190039350815181106114e657fe5b60200101906001600160f81b031916908160001a905350600a840493506114c3565b50949350505050565b6000610804838361186c565b5490565b60006108048383611884565b6000610804838361194a565b6000610ffd84846001600160a01b038516611994565b815460009082106115915760405162461bcd60e51b8152600401808060200182810382526022815260200180611d766022913960400191505060405180910390fd5b8260000182815481106115a057fe5b9060005260206000200154905092915050565b60006108048383611a2b565b8154600090819083106116035760405162461bcd60e51b8152600401808060200182810382526022815260200180611ea56022913960400191505060405180910390fd5b600084600001848154811061161457fe5b906000526020600020906002020190508060000154816001015492509250509250929050565b600082815260018401602052604081205482816116d55760405162461bcd60e51b81526004018080602001828103825283818151815260200191508051906020019080838360005b8381101561169a578181015183820152602001611682565b50505050905090810190601f1680156116c75780820380516001836020036101000a031916815260200191505b509250505060405180910390fd5b508460000160018203815481106116e857fe5b9060005260206000209060020201600101549150509392505050565b6000611718846001600160a01b0316611aff565b61172457506001610ffd565b6000611832630a85bd0160e11b611739610ee4565b88878760405160240180856001600160a01b03168152602001846001600160a01b0316815260200183815260200180602001828103825283818151815260200191508051906020019080838360005b838110156117a0578181015183820152602001611788565b50505050905090810190601f1680156117cd5780820380516001836020036101000a031916815260200191505b5095505050505050604051602081830303815290604052906001600160e01b0319166020820180516001600160e01b038381831617835250505050604051806060016040528060328152602001611d98603291396001600160a01b0388169190611b05565b9050600081806020019051602081101561184b57600080fd5b50516001600160e01b031916630a85bd0160e11b1492505050949350505050565b60009081526001919091016020526040902054151590565b6000818152600183016020526040812054801561194057835460001980830191908101906000908790839081106118b757fe5b90600052602060002001549050808760000184815481106118d457fe5b60009182526020808320909101929092558281526001898101909252604090209084019055865487908061190457fe5b60019003818190600052602060002001600090559055866001016000878152602001908152602001600020600090556001945050505050610807565b6000915050610807565b6000611956838361186c565b61198c57508154600181810184556000848152602080822090930184905584548482528286019093526040902091909155610807565b506000610807565b6000828152600184016020526040812054806119f9575050604080518082018252838152602080820184815286546001818101895560008981528481209551600290930290950191825591519082015586548684528188019092529290912055610a4b565b82856000016001830381548110611a0c57fe5b9060005260206000209060020201600101819055506000915050610a4b565b600081815260018301602052604081205480156119405783546000198083019190810190600090879083908110611a5e57fe5b9060005260206000209060020201905080876000018481548110611a7e57fe5b600091825260208083208454600290930201918255600193840154918401919091558354825289830190526040902090840190558654879080611abd57fe5b60008281526020808220600260001990940193840201828155600190810183905592909355888152898201909252604082209190915594506108079350505050565b3b151590565b6060610ffd848460008585611b1985611aff565b611b6a576040805162461bcd60e51b815260206004820152601d60248201527f416464726573733a2063616c6c20746f206e6f6e2d636f6e7472616374000000604482015290519081900360640190fd5b600080866001600160a01b031685876040518082805190602001908083835b60208310611ba85780518252601f199092019160209182019101611b89565b6001836020036101000a03801982511681845116808217855250505050505090500191505060006040518083038185875af1925050503d8060008114611c0a576040519150601f19603f3d011682016040523d82523d6000602084013e611c0f565b606091505b5091509150611c1f828286611c2a565b979650505050505050565b60608315611c39575081610a4b565b825115611c495782518084602001fd5b60405162461bcd60e51b815260206004820181815284516024840152845185939192839260440191908501908083836000831561169a578181015183820152602001611682565b50805460018160011615610100020316600290046000825580601f10611cb65750610848565b601f0160209004906000526020600020908101906108489190611d60565b828054600181600116156101000203166002900490600052602060002090601f016020900481019282611d0a5760008555611d50565b82601f10611d2357805160ff1916838001178555611d50565b82800160010185558215611d50579182015b82811115611d50578251825591602001919060010190611d35565b50611d5c929150611d60565b5090565b5b80821115611d5c5760008155600101611d6156fe456e756d657261626c655365743a20696e646578206f7574206f6620626f756e64734552433732313a207472616e7366657220746f206e6f6e20455243373231526563656976657220696d706c656d656e7465724552433732313a207472616e7366657220746f20746865207a65726f20616464726573734552433732313a206f70657261746f7220717565727920666f72206e6f6e6578697374656e7420746f6b656e4552433732313a20617070726f76652063616c6c6572206973206e6f74206f776e6572206e6f7220617070726f76656420666f7220616c6c4552433732313a2062616c616e636520717565727920666f7220746865207a65726f20616464726573734552433732313a206f776e657220717565727920666f72206e6f6e6578697374656e7420746f6b656e456e756d657261626c654d61703a20696e646578206f7574206f6620626f756e64734552433732313a20617070726f76656420717565727920666f72206e6f6e6578697374656e7420746f6b656e4552433732314d657461646174613a2055524920736574206f66206e6f6e6578697374656e7420746f6b656e4552433732313a207472616e73666572206f6620746f6b656e2074686174206973206e6f74206f776e4552433732314d657461646174613a2055524920717565727920666f72206e6f6e6578697374656e7420746f6b656e4552433732313a20617070726f76616c20746f2063757272656e74206f776e65724552433732313a207472616e736665722063616c6c6572206973206e6f74206f776e6572206e6f7220617070726f766564a2646970667358221220ca2508f54e10bd807d7f99ca4547fc281fa712cf04e5787fe62ca421c259616f64736f6c6343000706003360806040523480156200001157600080fd5b50604051620012a3380380620012a3833981810160405260408110156200003757600080fd5b81019080805160405193929190846401000000008211156200005857600080fd5b9083019060208201858111156200006e57600080fd5b82516401000000008111828201881017156200008957600080fd5b82525081516020918201929091019080838360005b83811015620000b85781810151838201526020016200009e565b50505050905090810190601f168015620000e65780820380516001836020036101000a031916815260200191505b50604052602001805160405193929190846401000000008211156200010a57600080fd5b9083019060208201858111156200012057600080fd5b82516401000000008111828201881017156200013b57600080fd5b82525081516020918201929091019080838360005b838110156200016a57818101518382015260200162000150565b50505050905090810190601f168015620001985780820380516001836020036101000a031916815260200191505b50604052505082518391508290620001b8906003906020850190620001fa565b508051620001ce906004906020840190620001fa565b505060058054601260ff1990911617610100600160a81b031916610100330217905550620002a6915050565b828054600181600116156101000203166002900490600052602060002090601f0160209004810192826200023257600085556200027d565b82601f106200024d57805160ff19168380011785556200027d565b828001600101855582156200027d579182015b828111156200027d57825182559160200191906001019062000260565b506200028b9291506200028f565b5090565b5b808211156200028b576000815560010162000290565b610fed80620002b66000396000f3fe608060405234801561001057600080fd5b50600436106100f55760003560e01c806342966c681161009757806395d89b411161006657806395d89b41146102fc578063a457c2d714610304578063a9059cbb14610330578063dd62ed3e1461035c576100f5565b806342966c6814610270578063635b43c91461028d57806370a08231146102aa57806379cc6790146102d0576100f5565b806323b872dd116100d357806323b872dd146101d1578063313ce5671461020757806339509351146102255780633a98bdd214610251576100f5565b806306fdde03146100fa578063095ea7b31461017757806318160ddd146101b7575b600080fd5b61010261038a565b6040805160208082528351818301528351919283929083019185019080838360005b8381101561013c578181015183820152602001610124565b50505050905090810190601f1680156101695780820380516001836020036101000a031916815260200191505b509250505060405180910390f35b6101a36004803603604081101561018d57600080fd5b506001600160a01b038135169060200135610420565b604080519115158252519081900360200190f35b6101bf61043d565b60408051918252519081900360200190f35b6101a3600480360360608110156101e757600080fd5b506001600160a01b03813581169160208101359091169060400135610443565b61020f6104ca565b6040805160ff9092168252519081900360200190f35b6101a36004803603604081101561023b57600080fd5b506001600160a01b0381351690602001356104d3565b61026e6004803603602081101561026757600080fd5b5035610521565b005b61026e6004803603602081101561028657600080fd5b5035610624565b61026e600480360360208110156102a357600080fd5b5035610638565b6101bf600480360360208110156102c057600080fd5b50356001600160a01b0316610746565b61026e600480360360408110156102e657600080fd5b506001600160a01b038135169060200135610761565b6101026107bb565b6101a36004803603604081101561031a57600080fd5b506001600160a01b03813516906020013561081c565b6101a36004803603604081101561034657600080fd5b506001600160a01b038135169060200135610884565b6101bf6004803603604081101561037257600080fd5b506001600160a01b0381358116916020013516610898565b60038054604080516020601f60026000196101006001881615020190951694909404938401819004810282018101909252828152606093909290918301828280156104165780601f106103eb57610100808354040283529160200191610416565b820191906000526020600020905b8154815290600101906020018083116103f957829003601f168201915b5050505050905090565b600061043461042d6108c3565b84846108c7565b50600192915050565b60025490565b60006104508484846109b3565b6104c08461045c6108c3565b6104bb85604051806060016040528060288152602001610edd602891396001600160a01b038a1660009081526001602052604081209061049a6108c3565b6001600160a01b031681526020810191909152604001600020549190610b0e565b6108c7565b5060019392505050565b60055460ff1690565b60006104346104e06108c3565b846104bb85600160006104f16108c3565b6001600160a01b03908116825260208083019390935260409182016000908120918c168152925290205490610ba5565b6005546040805163effd602160e01b815260048101849052905160009261010090046001600160a01b03169163effd602191602480830192602092919082900301818787803b15801561057357600080fd5b505af1158015610587573d6000803e3d6000fd5b505050506040513d602081101561059d57600080fd5b505190506105ab3382610761565b600554604080516323b872dd60e01b81523060048201523360248201526044810185905290516101009092046001600160a01b0316916323b872dd9160648082019260009290919082900301818387803b15801561060857600080fd5b505af115801561061c573d6000803e3d6000fd5b505050505050565b61063561062f6108c3565b82610c06565b50565b600554604080516323b872dd60e01b81523360048201523060248201526044810184905290516101009092046001600160a01b0316916323b872dd9160648082019260009290919082900301818387803b15801561069557600080fd5b505af11580156106a9573d6000803e3d6000fd5b505050506000600560019054906101000a90046001600160a01b03166001600160a01b031663effd6021836040518263ffffffff1660e01b815260040180828152602001915050602060405180830381600087803b15801561070a57600080fd5b505af115801561071e573d6000803e3d6000fd5b505050506040513d602081101561073457600080fd5b505190506107423382610d02565b5050565b6001600160a01b031660009081526020819052604090205490565b600061079882604051806060016040528060248152602001610f05602491396107918661078c6108c3565b610898565b9190610b0e565b90506107ac836107a66108c3565b836108c7565b6107b68383610c06565b505050565b60048054604080516020601f60026000196101006001881615020190951694909404938401819004810282018101909252828152606093909290918301828280156104165780601f106103eb57610100808354040283529160200191610416565b60006104346108296108c3565b846104bb85604051806060016040528060258152602001610f9360259139600160006108536108c3565b6001600160a01b03908116825260208083019390935260409182016000908120918d16815292529020549190610b0e565b60006104346108916108c3565b84846109b3565b6001600160a01b03918216600090815260016020908152604080832093909416825291909152205490565b3390565b6001600160a01b03831661090c5760405162461bcd60e51b8152600401808060200182810382526024815260200180610f6f6024913960400191505060405180910390fd5b6001600160a01b0382166109515760405162461bcd60e51b8152600401808060200182810382526022815260200180610e956022913960400191505060405180910390fd5b6001600160a01b03808416600081815260016020908152604080832094871680845294825291829020859055815185815291517f8c5be1e5ebec7d5bd14f71427d1e84f3dd0314c0f7b2291e5b200ac8c7c3b9259281900390910190a3505050565b6001600160a01b0383166109f85760405162461bcd60e51b8152600401808060200182810382526025815260200180610f4a6025913960400191505060405180910390fd5b6001600160a01b038216610a3d5760405162461bcd60e51b8152600401808060200182810382526023815260200180610e506023913960400191505060405180910390fd5b610a488383836107b6565b610a8581604051806060016040528060268152602001610eb7602691396001600160a01b0386166000908152602081905260409020549190610b0e565b6001600160a01b038085166000908152602081905260408082209390935590841681522054610ab49082610ba5565b6001600160a01b038084166000818152602081815260409182902094909455805185815290519193928716927fddf252ad1be2c89b69c2b068fc378daa952ba7f163c4a11628f55a4df523b3ef92918290030190a3505050565b60008184841115610b9d5760405162461bcd60e51b81526004018080602001828103825283818151815260200191508051906020019080838360005b83811015610b62578181015183820152602001610b4a565b50505050905090810190601f168015610b8f5780820380516001836020036101000a031916815260200191505b509250505060405180910390fd5b505050900390565b600082820183811015610bff576040805162461bcd60e51b815260206004820152601b60248201527f536166654d6174683a206164646974696f6e206f766572666c6f770000000000604482015290519081900360640190fd5b9392505050565b6001600160a01b038216610c4b5760405162461bcd60e51b8152600401808060200182810382526021815260200180610f296021913960400191505060405180910390fd5b610c57826000836107b6565b610c9481604051806060016040528060228152602001610e73602291396001600160a01b0385166000908152602081905260409020549190610b0e565b6001600160a01b038316600090815260208190526040902055600254610cba9082610df2565b6002556040805182815290516000916001600160a01b038516917fddf252ad1be2c89b69c2b068fc378daa952ba7f163c4a11628f55a4df523b3ef9181900360200190a35050565b6001600160a01b038216610d5d576040805162461bcd60e51b815260206004820152601f60248201527f45524332303a206d696e7420746f20746865207a65726f206164647265737300604482015290519081900360640190fd5b610d69600083836107b6565b600254610d769082610ba5565b6002556001600160a01b038216600090815260208190526040902054610d9c9082610ba5565b6001600160a01b0383166000818152602081815260408083209490945583518581529351929391927fddf252ad1be2c89b69c2b068fc378daa952ba7f163c4a11628f55a4df523b3ef9281900390910190a35050565b600082821115610e49576040805162461bcd60e51b815260206004820152601e60248201527f536166654d6174683a207375627472616374696f6e206f766572666c6f770000604482015290519081900360640190fd5b5090039056fe45524332303a207472616e7366657220746f20746865207a65726f206164647265737345524332303a206275726e20616d6f756e7420657863656564732062616c616e636545524332303a20617070726f766520746f20746865207a65726f206164647265737345524332303a207472616e7366657220616d6f756e7420657863656564732062616c616e636545524332303a207472616e7366657220616d6f756e74206578636565647320616c6c6f77616e636545524332303a206275726e20616d6f756e74206578636565647320616c6c6f77616e636545524332303a206275726e2066726f6d20746865207a65726f206164647265737345524332303a207472616e736665722066726f6d20746865207a65726f206164647265737345524332303a20617070726f76652066726f6d20746865207a65726f206164647265737345524332303a2064656372656173656420616c6c6f77616e63652062656c6f77207a65726fa26469706673582212209c0aba9d7fbef260af4fe812a77cfacdac7ff1544e9298f033ac30fbe3d9bf5764736f6c63430007060033456e756d657261626c655365743a20696e646578206f7574206f6620626f756e64734552433732313a207472616e7366657220746f206e6f6e20455243373231526563656976657220696d706c656d656e7465724552433732313a207472616e7366657220746f20746865207a65726f20616464726573734552433732313a206f70657261746f7220717565727920666f72206e6f6e6578697374656e7420746f6b656e4552433732313a20617070726f76652063616c6c6572206973206e6f74206f776e6572206e6f7220617070726f76656420666f7220616c6c4552433732313a2062616c616e636520717565727920666f7220746865207a65726f20616464726573734552433732313a206f776e657220717565727920666f72206e6f6e6578697374656e7420746f6b656e456e756d657261626c654d61703a20696e646578206f7574206f6620626f756e64734552433732313a20617070726f76656420717565727920666f72206e6f6e6578697374656e7420746f6b656e4552433732314d657461646174613a2055524920736574206f66206e6f6e6578697374656e7420746f6b656e4552433732313a207472616e73666572206f6620746f6b656e2074686174206973206e6f74206f776e4552433732314d657461646174613a2055524920717565727920666f72206e6f6e6578697374656e7420746f6b656e4552433732313a20617070726f76616c20746f2063757272656e74206f776e65724552433732313a207472616e736665722063616c6c6572206973206e6f74206f776e6572206e6f7220617070726f766564a2646970667358221220dfc340150c19d39f3cf70662e541be3ebdff4bab71587a9f58d837fbb75409d264736f6c63430007060033",
  "immutableReferences": {},
  "source": "// SPDX-License-Identifier: MIT\npragma solidity >=0.7.0;\n\nimport \"@openzeppelin/contracts/token/ERC721/ERC721.sol\";\nimport \"@openzeppelin/contracts/math/SafeMath.sol\";\nimport {ICollections, IStamps, IMerkle} from \"./Interfaces.sol\";\nimport './Stamps.sol';\nimport '@openzeppelin/contracts/presets/ERC721PresetMinterPauserAutoId.sol';\n\ncontract Collections is ERC721 {\n\n    using SafeMath for uint256;\n\n    uint256 _currentTokenId = 0;\n    IMerkle Merkle;\n    struct Collection {\n        bytes32 root;\n        uint256 value;\n        address stampsContract;\n        bool nominated;\n    }\n\n    mapping(uint256 => mapping(bytes32 => bool)) detachedItems;\n    mapping (uint256 => Collection) collections;\n\n    event CollectionCreated(uint256 indexed tokenId, IStamps indexed stampsContract);\n\n    constructor(string memory name, string memory symbol, IMerkle merkle) ERC721(name, symbol) {\n        Merkle = merkle;\n    }\n\n    function createCollection(string memory name, string memory symbol, uint256 value, bytes32 root, string calldata URI) external  {\n        _mint(msg.sender, _currentTokenId);\n        _setTokenURI(_currentTokenId, URI);\n\n        // Replace on proxy\n        // Concat global prefix with symbols\n        IStamps stampsContract = new Stamps(name, symbol, value != 0 );\n\n        collections[_currentTokenId] = Collection({\n            root: root,\n            value: value,\n            stampsContract: address(stampsContract),\n            nominated: (value != 0)\n        });\n\n        emit CollectionCreated(_currentTokenId, stampsContract);\n\n        _currentTokenId++;\n    }\n\n    function detachItem(uint256 collectionId, uint256 denomination, string calldata itemURI, bytes calldata proof) external  {\n        bytes32 itemHash = keccak256(abi.encodePacked(denomination, itemURI));\n        Collection storage collection = collections[collectionId];\n        require(_isApprovedOrOwner(msg.sender, collectionId), \"\");\n        require(Merkle.verifyProof(itemHash, collection.root, proof), \"\");\n\n        if (collection.nominated) {\n            collection.value = collection.value.sub(denomination);\n        }\n\n        detachedItems[collectionId][itemHash] = true;\n        IStamps(collection.stampsContract).mint(denomination, itemURI);\n    }\n\n    function joinItem( uint256 collectionId, uint256 itemId) external  {\n        Collection storage collection = collections[collectionId];\n        uint256 stampDenomination = IStamps(collection.stampsContract).getDenomination(itemId);\n        string memory stampURI = IStamps(collection.stampsContract).tokenURI(itemId);\n        bytes32 itemHash = keccak256(abi.encodePacked(stampDenomination, stampURI));\n        require(detachedItems[collectionId][itemHash], \"\");\n\n        if (collection.nominated == true) {\n            collection.value = collection.value.add(stampDenomination);\n        }\n\n        detachedItems[collectionId][itemHash] = false;\n        IStamps(collection.stampsContract).burn(itemId);\n    }\n\n}\n",
  "sourcePath": "/Users/kellas/Projects/NFTHack/nfthack/contracts/Collections.sol",
  "compiler": {
    "name": "solc",
    "version": "0.7.6+commit.7338295f.Emscripten.clang"
  },
  "schemaVersion": "3.3.4",
  "updatedAt": "2021-03-20T14:04:44.115Z",
  "networkType": "ethereum",
  "devdoc": {
    "kind": "dev",
    "methods": {
      "approve(address,uint256)": {
        "details": "See {IERC721-approve}."
      },
      "balanceOf(address)": {
        "details": "See {IERC721-balanceOf}."
      },
      "baseURI()": {
        "details": "Returns the base URI set via {_setBaseURI}. This will be automatically added as a prefix in {tokenURI} to each token's URI, or to the token ID if no specific URI is set for that token ID."
      },
      "getApproved(uint256)": {
        "details": "See {IERC721-getApproved}."
      },
      "isApprovedForAll(address,address)": {
        "details": "See {IERC721-isApprovedForAll}."
      },
      "name()": {
        "details": "See {IERC721Metadata-name}."
      },
      "ownerOf(uint256)": {
        "details": "See {IERC721-ownerOf}."
      },
      "safeTransferFrom(address,address,uint256)": {
        "details": "See {IERC721-safeTransferFrom}."
      },
      "safeTransferFrom(address,address,uint256,bytes)": {
        "details": "See {IERC721-safeTransferFrom}."
      },
      "setApprovalForAll(address,bool)": {
        "details": "See {IERC721-setApprovalForAll}."
      },
      "supportsInterface(bytes4)": {
        "details": "See {IERC165-supportsInterface}. Time complexity O(1), guaranteed to always use less than 30 000 gas."
      },
      "symbol()": {
        "details": "See {IERC721Metadata-symbol}."
      },
      "tokenByIndex(uint256)": {
        "details": "See {IERC721Enumerable-tokenByIndex}."
      },
      "tokenOfOwnerByIndex(address,uint256)": {
        "details": "See {IERC721Enumerable-tokenOfOwnerByIndex}."
      },
      "tokenURI(uint256)": {
        "details": "See {IERC721Metadata-tokenURI}."
      },
      "totalSupply()": {
        "details": "See {IERC721Enumerable-totalSupply}."
      },
      "transferFrom(address,address,uint256)": {
        "details": "See {IERC721-transferFrom}."
      }
    },
    "version": 1
  },
  "userdoc": {
    "kind": "user",
    "methods": {},
    "version": 1
  }
}